:100000000C942A000C943F000C943F000C943F0089
:100010000C943F000C943F000C943F000C943F0064
:100020000C943F000C943F000C943F000C943F0054
:100030000C943F000C943F000C943F000C943F0044
:100040000C943F000C943F000C943F000C943F0034
:100050000C943F0011241FBECFE5D8E0DEBFCDBF1A
:1000600010E0A0E6B0E0EAECFAE002C005900D92E4
:10007000A437B107D9F70E945A050C9463050C9474
:100080000000DF93CF93CDB7DEB78AE161E00E9435
:10009000B0028BE161E00E94B0028CE161E00E945D
:1000A000B0028DE161E00E94B0028EE161E00E9449
:1000B000B0028FE161E00E94B0028AE161E00E943B
:1000C00045018BE160E00E9445018EE161E00E9404
:1000D00045018FE160E00E9445010E94B4040E9446
:1000E0005E04CF91DF910895DF93CF93CDB7DEB754
:1000F0006F970FB6F894DEBF0FBECDBFCE0102964C
:100100009F8B8E8BEAE6F0E0F98FE88FFAE0FA8FAA
:10011000E88DF98D0080888D998D0196998F888F53
:10012000EE89FF8900828E899F8901969F8B8E8B35
:100130009A8D91509A8FEA8DEE2351F7CE010C964D
:100140009C8F8B8FE0E6F0E0FE8FED8FFAE0FF8F63
:10015000ED8DFE8D00808D8D9E8D01969E8F8D8FF5
:10016000EB8DFC8D00828B8D9C8D01969C8F8B8FEF
:100170009F8D91509F8FEF8DEE2351F71982198239
:1001800029C08981992787FD90959C01220F331FF3
:10019000CE010196820F931FFC013196408151815F
:1001A0008981992787FD90959C01220F331FCE01ED
:1001B0000196820F931FFC013B9620813181CA0179
:1001C000B9010E94E20488EE93E00E9476048981DE
:1001D0008F5F898389818430A4F284E0898329C078
:1001E0008981992787FD90959C01220F331FCE01AD
:1001F0000196820F931FFC013196408151818981C4
:10020000992787FD90959C01220F331FCE010196FF
:10021000820F931FFC013B9620813181CA01B901F5
:100220000E94E20488EE93E00E9476048981815066
:10023000898389818823A4F68AE160E00E944501D0
:100240008BE161E00E94450181E090E069E370E0AC
:100250000E94E20488E795E00E94760480E090E046
:1002600060E070E00E94E2048AE161E00E944501E2
:100270008BE160E00E9445016F960FB6F894DEBFF7
:100280000FBECDBFCF91DF910895DF93CF9300D004
:1002900000D00F92CDB7DEB78A836B838A818695B3
:1002A0008695869589838A8187708A838981282F9C
:1002B00030E03D832C838C819D818130910509F450
:1002C00043C02C813D81223031052CF48C819D81ED
:1002D000009771F0BCC02C813D812230310509F4BA
:1002E0005FC08C819D818330910509F485C0AFC0CA
:1002F0008B818130A1F4ABE3B0E0EBE3F0E08081EF
:10030000482F8A81282F30E081E090E0022E02C041
:10031000880F991F0A94E2F7842B8C9398C0ABE363
:10032000B0E0EBE3F0E08081482F8A81282F30E0B5
:1003300081E090E0022E02C0880F991F0A94E2F734
:10034000809584238C9383C08B818130A1F4A8E3B2
:10035000B0E0E8E3F0E08081482F8A81282F30E088
:1003600081E090E0022E02C0880F991F0A94E2F704
:10037000842B8C936CC0A8E3B0E0E8E3F0E08081CC
:10038000482F8A81282F30E081E090E0022E02C0C1
:10039000880F991F0A94E2F7809584238C9357C0A5
:1003A0008B818130A1F4A5E3B0E0E5E3F0E080814A
:1003B000482F8A81282F30E081E090E0022E02C091
:1003C000880F991F0A94E2F7842B8C9340C0A5E311
:1003D000B0E0E5E3F0E08081482F8A81282F30E00B
:1003E00081E090E0022E02C0880F991F0A94E2F784
:1003F000809584238C932BC08B818130A1F4A2E360
:10040000B0E0E2E3F0E08081482F8A81282F30E0DD
:1004100081E090E0022E02C0880F991F0A94E2F753
:10042000842B8C9314C0A2E3B0E0E2E3F0E080817F
:10043000482F8A81282F30E081E090E0022E02C010
:10044000880F991F0A94E2F7809584238C930F906C
:100450000F900F900F900F90CF91DF910895DF9341
:10046000CF9300D000D00F92CDB7DEB78B831A8226
:100470008B8186958695869589838B8187708B8302
:100480008981282F30E03D832C834C815D81413070
:10049000510541F18C819D818230910534F42C818C
:1004A0003D812115310561F052C04C815D814230A2
:1004B000510551F18C819D8183309105B9F147C07F
:1004C000E9E3F0E08081282F30E08B81882F90E0F5
:1004D000A90102C0559547958A95E2F7CA01817036
:1004E0008A8335C0E6E3F0E08081282F30E08B81FD
:1004F000882F90E0A90102C0559547958A95E2F7AB
:10050000CA0181708A8323C0E3E3F0E08081282F51
:1005100030E08B81882F90E0A90102C05595479566
:100520008A95E2F7CA0181708A8311C0E0E3F0E0A6
:100530008081282F30E08B81882F90E0A90102C0B4
:10054000559547958A95E2F7CA0181708A838A8119
:100550000F900F900F900F900F90CF91DF91089513
:10056000DF93CF9300D000D00F92CDB7DEB78A8350
:100570006B838A8186958695869589838A81877023
:100580008A838981282F30E03D832C838C819D8153
:100590008130910509F443C02C813D812230310521
:1005A0002CF48C819D81009771F0BCC02C813D8121
:1005B0002230310509F45FC08C819D818330910523
:1005C00009F485C0AFC08B818130A1F4AAE3B0E00B
:1005D000EAE3F0E08081482F8A81282F30E081E033
:1005E00090E0022E02C0880F991F0A94E2F7842B34
:1005F0008C9398C0AAE3B0E0EAE3F0E08081482F52
:100600008A81282F30E081E090E0022E02C0880F1E
:10061000991F0A94E2F7809584238C9383C08B8181
:100620008130A1F4A7E3B0E0E7E3F0E08081482F58
:100630008A81282F30E081E090E0022E02C0880FEE
:10064000991F0A94E2F7842B8C936CC0A7E3B0E067
:10065000E7E3F0E08081482F8A81282F30E081E0B5
:1006600090E0022E02C0880F991F0A94E2F780954D
:1006700084238C9357C08B818130A1F4A4E3B0E034
:10068000E4E3F0E08081482F8A81282F30E081E088
:1006900090E0022E02C0880F991F0A94E2F7842B83
:1006A0008C9340C0A4E3B0E0E4E3F0E08081482F05
:1006B0008A81282F30E081E090E0022E02C0880F6E
:1006C000991F0A94E2F7809584238C932BC08B8129
:1006D0008130A1F4A1E3B0E0E1E3F0E08081482FB4
:1006E0008A81282F30E081E090E0022E02C0880F3E
:1006F000991F0A94E2F7842B8C9314C0A1E3B0E015
:10070000E1E3F0E08081482F8A81282F30E081E00A
:1007100090E0022E02C0880F991F0A94E2F780959C
:1007200084238C930F900F900F900F900F90CF9188
:10073000DF910895DF93CF9300D000D0CDB7DEB71F
:1007400089836A838981282F30E03C832B838B81C6
:100750009C8181309105D1F02B813C812230310583
:100760002CF48B819C81009761F01EC02B813C8111
:100770002230310581F08B819C818330910581F09D
:1007800013C0EAE3F0E08A8180830EC0E7E3F0E083
:100790008A81808309C0E4E3F0E08A81808304C019
:1007A000E1E3F0E08A8180830F900F900F900F902B
:1007B000CF91DF910895DF93CF9300D000D0CDB7D4
:1007C000DEB789836A838981282F30E03C832B83BD
:1007D0008B819C8181309105D1F02B813C8122302D
:1007E00031052CF48B819C81009761F01EC02B8118
:1007F0003C812230310581F08B819C8183309105D1
:1008000081F013C0EBE3F0E08A8180830EC0E8E35F
:10081000F0E08A81808309C0E5E3F0E08A8180838B
:1008200004C0E2E3F0E08A8180830F900F900F9084
:100830000F90CF91DF910895DF93CF9300D000D038
:10084000CDB7DEB78A8319828A81282F30E03C83B6
:100850002B838B819C8181309105D1F02B813C8150
:10086000223031052CF48B819C81009761F01EC0F1
:100870002B813C812230310581F08B819C8183303A
:10088000910581F013C0E9E3F0E0808189830EC017
:10089000E6E3F0E08081898309C0E3E3F0E0808152
:1008A000898304C0E0E3F0E08081898389810F902F
:1008B0000F900F900F90CF91DF910895DF93CF931A
:1008C000CDB7DEB7E4E4F0E01082A5E4B0E0E5E403
:1008D000F0E0808180688C93A5E4B0E0E5E4F0E08E
:1008E000808188608C93CF91DF910895DF93CF93BF
:1008F00000D0CDB7DEB79A838983E3E4F0E08CE7DC
:100900008083A5E4B0E0E5E4F0E0808184608C932E
:10091000A5E4B0E0E5E4F0E080818D7F8C93A5E470
:10092000B0E0E5E4F0E0808181608C9314C0E8E5FC
:10093000F0E08081881F8827881F813061F4A8E556
:10094000B0E0E8E5F0E0808180688C9389819A814D
:1009500001979A83898389819A81009741F70F9043
:100960000F90CF91DF910895DF93CF93CDB7DEB78E
:100970008DE161E00E94B002EDE4F0E01082ECE471
:10098000F0E01082E7E4F0E084E08083E6E4F0E069
:1009900082EE8083AFE4B0E0EFE4F0E0808182603B
:1009A0008C93AEE4B0E0EEE4F0E0808180618C9363
:1009B000AFE4B0E0EFE4F0E0808180688C93CF9109
:1009C000DF910895DF93CF9300D000D0CDB7DEB78D
:1009D0009A8389837C836B83EBE4F0E08981808355
:1009E000EAE4F0E08B818083AEE4B0E0EEE4F0E096
:1009F000808181608C93AEE4B0E0EEE4F0E0808131
:100A000082608C930F900F900F900F90CF91DF9199
:100A10000895DF93CF93CDB7DEB7A3E5B0E0E3E56C
:100A2000F0E080818F778C93A3E5B0E0E3E5F0E020
:100A300080818F7B8C93A3E5B0E0E3E5F0E08081DB
:100A4000877F8C93A3E5B0E0E3E5F0E080818F7DC4
:100A50008C93A3E5B0E0E3E5F0E080818F7E8C939A
:100A6000A3E5B0E0E3E5F0E080818B7F8C93A3E524
:100A7000B0E0E3E5F0E080818D7F8C93A3E5B0E00A
:100A8000E3E5F0E0808181608C93E2E5F0E080ECCA
:100A90008083A9E5B0E0E9E5F0E0808181608C9396
:100AA000AFE5B0E0EFE5F0E0808180688C93CF9116
:100AB000DF910895DF93CF93CDB7DEB70E94410059
:0A0AC0000E947400FDCFF894FFCFF0
:100ACA00000039007100AA00E200000001000200E3
:040ADA000300040011
:00000001FF
